{
  "_format": "hh-sol-artifact-1",
  "contractName": "RealEstateMarketplace",
  "sourceName": "contracts/NitroVest.sol",
  "abi": [
    {
      "inputs": [
        {
          "internalType": "uint256",
          "name": "_percentageFee",
          "type": "uint256"
        }
      ],
      "stateMutability": "nonpayable",
      "type": "constructor"
    },
    {
      "anonymous": false,
      "inputs": [
        {
          "indexed": false,
          "internalType": "uint256",
          "name": "newPercentage",
          "type": "uint256"
        }
      ],
      "name": "ContractFeePercentageUpdated",
      "type": "event"
    },
    {
      "anonymous": false,
      "inputs": [
        {
          "indexed": false,
          "internalType": "uint256",
          "name": "propertyId",
          "type": "uint256"
        }
      ],
      "name": "PropertyListed",
      "type": "event"
    },
    {
      "anonymous": false,
      "inputs": [
        {
          "indexed": false,
          "internalType": "uint256",
          "name": "propertyId",
          "type": "uint256"
        },
        {
          "indexed": false,
          "internalType": "address",
          "name": "buyer",
          "type": "address"
        },
        {
          "indexed": false,
          "internalType": "uint256",
          "name": "tokensAmount",
          "type": "uint256"
        }
      ],
      "name": "PropertyPurchased",
      "type": "event"
    },
    {
      "anonymous": false,
      "inputs": [
        {
          "indexed": false,
          "internalType": "uint256",
          "name": "propertyId",
          "type": "uint256"
        },
        {
          "indexed": false,
          "internalType": "address",
          "name": "investor",
          "type": "address"
        },
        {
          "indexed": false,
          "internalType": "uint256",
          "name": "tokensAmount",
          "type": "uint256"
        }
      ],
      "name": "PropertyTokenized",
      "type": "event"
    },
    {
      "anonymous": false,
      "inputs": [
        {
          "indexed": false,
          "internalType": "address",
          "name": "receiver",
          "type": "address"
        },
        {
          "indexed": false,
          "internalType": "uint256",
          "name": "amount",
          "type": "uint256"
        }
      ],
      "name": "Withdraw",
      "type": "event"
    },
    {
      "inputs": [
        {
          "internalType": "uint256",
          "name": "_propertyId",
          "type": "uint256"
        },
        {
          "internalType": "uint256[]",
          "name": "_tokenIds",
          "type": "uint256[]"
        }
      ],
      "name": "buyProperty",
      "outputs": [],
      "stateMutability": "payable",
      "type": "function"
    },
    {
      "inputs": [],
      "name": "contractFeePercentage",
      "outputs": [
        {
          "internalType": "uint256",
          "name": "",
          "type": "uint256"
        }
      ],
      "stateMutability": "view",
      "type": "function"
    },
    {
      "inputs": [
        {
          "internalType": "string[4]",
          "name": "_details",
          "type": "string[4]"
        },
        {
          "internalType": "uint256",
          "name": "_areaInSqFt",
          "type": "uint256"
        },
        {
          "internalType": "uint256",
          "name": "_listingPrice",
          "type": "uint256"
        },
        {
          "internalType": "uint256",
          "name": "_totalTokens",
          "type": "uint256"
        },
        {
          "internalType": "address",
          "name": "_owner",
          "type": "address"
        },
        {
          "internalType": "bool",
          "name": "_allowPartial",
          "type": "bool"
        }
      ],
      "name": "createAndListProperty",
      "outputs": [],
      "stateMutability": "nonpayable",
      "type": "function"
    },
    {
      "inputs": [
        {
          "internalType": "uint256",
          "name": "_propertyId",
          "type": "uint256"
        }
      ],
      "name": "getEquity",
      "outputs": [
        {
          "internalType": "uint256",
          "name": "",
          "type": "uint256"
        }
      ],
      "stateMutability": "view",
      "type": "function"
    },
    {
      "inputs": [],
      "name": "getPropertyOwnerProfile",
      "outputs": [
        {
          "internalType": "uint256[]",
          "name": "",
          "type": "uint256[]"
        },
        {
          "internalType": "uint256[]",
          "name": "",
          "type": "uint256[]"
        }
      ],
      "stateMutability": "view",
      "type": "function"
    },
    {
      "inputs": [],
      "name": "getUserListedPropertyInvestorsCount",
      "outputs": [
        {
          "internalType": "uint256[]",
          "name": "",
          "type": "uint256[]"
        }
      ],
      "stateMutability": "view",
      "type": "function"
    },
    {
      "inputs": [],
      "name": "getUserProfile",
      "outputs": [
        {
          "internalType": "uint256[]",
          "name": "",
          "type": "uint256[]"
        }
      ],
      "stateMutability": "view",
      "type": "function"
    },
    {
      "inputs": [],
      "name": "owner",
      "outputs": [
        {
          "internalType": "address",
          "name": "",
          "type": "address"
        }
      ],
      "stateMutability": "view",
      "type": "function"
    },
    {
      "inputs": [
        {
          "internalType": "uint256",
          "name": "",
          "type": "uint256"
        }
      ],
      "name": "properties",
      "outputs": [
        {
          "internalType": "uint256",
          "name": "areaInSqFt",
          "type": "uint256"
        },
        {
          "internalType": "address",
          "name": "owner",
          "type": "address"
        },
        {
          "internalType": "uint256",
          "name": "listingPrice",
          "type": "uint256"
        },
        {
          "internalType": "uint256",
          "name": "totalTokens",
          "type": "uint256"
        },
        {
          "internalType": "uint256",
          "name": "tokenPrice",
          "type": "uint256"
        },
        {
          "internalType": "uint256",
          "name": "tokensSold",
          "type": "uint256"
        },
        {
          "internalType": "contract CustomNFT",
          "name": "nft",
          "type": "address"
        },
        {
          "internalType": "uint256",
          "name": "equity",
          "type": "uint256"
        },
        {
          "internalType": "bool",
          "name": "allowPartial",
          "type": "bool"
        }
      ],
      "stateMutability": "view",
      "type": "function"
    },
    {
      "inputs": [
        {
          "internalType": "uint256",
          "name": "",
          "type": "uint256"
        }
      ],
      "name": "propertyInvestorsCount",
      "outputs": [
        {
          "internalType": "uint256",
          "name": "",
          "type": "uint256"
        }
      ],
      "stateMutability": "view",
      "type": "function"
    },
    {
      "inputs": [
        {
          "internalType": "address",
          "name": "",
          "type": "address"
        },
        {
          "internalType": "uint256",
          "name": "",
          "type": "uint256"
        }
      ],
      "name": "propertyOwnerListings",
      "outputs": [
        {
          "internalType": "uint256",
          "name": "",
          "type": "uint256"
        }
      ],
      "stateMutability": "view",
      "type": "function"
    },
    {
      "inputs": [
        {
          "internalType": "uint256",
          "name": "_fee",
          "type": "uint256"
        }
      ],
      "name": "resetContractFeePercentage",
      "outputs": [],
      "stateMutability": "nonpayable",
      "type": "function"
    },
    {
      "inputs": [
        {
          "internalType": "uint256",
          "name": "",
          "type": "uint256"
        },
        {
          "internalType": "address",
          "name": "",
          "type": "address"
        }
      ],
      "name": "tokenBalances",
      "outputs": [
        {
          "internalType": "uint256",
          "name": "",
          "type": "uint256"
        }
      ],
      "stateMutability": "view",
      "type": "function"
    },
    {
      "inputs": [
        {
          "internalType": "address",
          "name": "",
          "type": "address"
        },
        {
          "internalType": "uint256",
          "name": "",
          "type": "uint256"
        }
      ],
      "name": "userOwnedTokens",
      "outputs": [
        {
          "internalType": "uint256",
          "name": "",
          "type": "uint256"
        }
      ],
      "stateMutability": "view",
      "type": "function"
    },
    {
      "inputs": [],
      "name": "withdraw",
      "outputs": [],
      "stateMutability": "nonpayable",
      "type": "function"
    }
  ],
  "bytecode": "0x608060405234801561001057600080fd5b5060405161339438038061339483398101604081905261002f91610049565b600180546001600160a01b03191633179055600055610062565b60006020828403121561005b57600080fd5b5051919050565b613323806100716000396000f3fe608060405260043610620000fb5760003560e01c80636f61c74411620000955780639800bf7211620000605780639800bf7214620002bf578063dbd8987c14620002e7578063efc98a4614620002ff578063f7b10808146200032457600080fd5b80636f61c74414620002205780637296ad5014620002475780637de4a4cb146200026c5780638da5cb5b146200028457600080fd5b80633bde66d011620000d65780633bde66d0146200018e5780633ccfd60b14620001a7578063426eab9d14620001bf578063661d49b014620001e457600080fd5b806314b924e2146200010057806315a53b6114620001385780632e7f4c061462000169575b600080fd5b3480156200010d57600080fd5b50620001256200011f366004620011f2565b6200039d565b6040519081526020015b60405180910390f35b3480156200014557600080fd5b50620001256200015736600462001221565b60066020526000908152604090205481565b3480156200017657600080fd5b50620001256200018836600462001221565b620003cf565b620001a56200019f3660046200123b565b62000429565b005b348015620001b457600080fd5b50620001a5620009c3565b348015620001cc57600080fd5b5062000125620001de366004620011f2565b62000b1e565b348015620001f157600080fd5b506200012562000203366004620012bf565b600360209081526000928352604080842090915290825290205481565b3480156200022d57600080fd5b506200023862000b3b565b6040516200012f91906200132f565b3480156200025457600080fd5b50620001a562000266366004620013d2565b62000b9e565b3480156200027957600080fd5b506200023862000efa565b3480156200029157600080fd5b50600154620002a6906001600160a01b031681565b6040516001600160a01b0390911681526020016200012f565b348015620002cc57600080fd5b50620002d762000fa5565b6040516200012f92919062001515565b348015620002f457600080fd5b506200012560005481565b3480156200030c57600080fd5b50620001a56200031e36600462001221565b6200101b565b3480156200033157600080fd5b50620003496200034336600462001221565b62001083565b60408051998a526001600160a01b0398891660208b01528901969096526060880194909452608087019290925260a086015290921660c084015260e08301919091521515610100820152610120016200012f565b60046020528160005260406000208181548110620003ba57600080fd5b90600052602060002001600091509150505481565b60008060028381548110620003e857620003e862001547565b90600052602060002090600d0201905060008160080154826009015462000410919062001573565b826006015462000421919062001593565b949350505050565b6002805484918491849182918590811062000448576200044862001547565b60009182526020909120600c600d90920201015460ff16156200055b57600284815481106200047b576200047b62001547565b90600052602060002090600d0201600701548160028681548110620004a457620004a462001547565b90600052602060002090600d020160090154620004c29190620015a9565b1115620005165760405162461bcd60e51b815260206004820152601c60248201527f4e6f7420656e6f75676820746f6b656e7320617661696c61626c652e0000000060448201526064015b60405180910390fd5b60008111620005555760405162461bcd60e51b815260206004820152600a6024820152691b1bddc8185b5bdd5b9d60b21b60448201526064016200050d565b620005fa565b6002848154811062000571576200057162001547565b90600052602060002090600d0201600701546002858154811062000599576200059962001547565b90600052602060002090600d02016009015414620005fa5760405162461bcd60e51b815260206004820152601d60248201527f50726f7065727479206e6f742066756c6c7920746f6b656e697a65642e00000060448201526064016200050d565b60006002888154811062000612576200061262001547565b6000918252602082206008600d90920201908101549092508791906200063a90839062001573565b9050600060646000548362000650919062001573565b6200065c9190620015bf565b905081341015620006a55760405162461bcd60e51b815260206004820152601260248201527124b739bab33334b1b4b2b73a1022ba3432b960711b60448201526064016200050d565b6000620006b3828462001593565b60058601546040519192506001600160a01b03169082156108fc029083906000818181858888f19350505050158015620006f1573d6000803e3d6000fd5b50604051309083156108fc029084906000818181858888f1935050505015801562000720573d6000803e3d6000fd5b5060005b848110156200093c5760008c8c8381811062000744576200074462001547565b60058a0154600a8b01546040516331a9108f60e11b815260209390930294909401356004830181905294506001600160a01b0390811693169150636352211e90602401602060405180830381865afa158015620007a5573d6000803e3d6000fd5b505050506040513d601f19601f82011682018060405250810190620007cb9190620015e2565b6001600160a01b0316146200082d5760405162461bcd60e51b815260206004820152602160248201527f546f6b656e206e6f74206f776e65642062792070726f7065727479206f776e656044820152603960f91b60648201526084016200050d565b600a87015460058801546040516323b872dd60e01b81526001600160a01b039182166004820152336024820152604481018490529116906323b872dd90606401600060405180830381600087803b1580156200088857600080fd5b505af11580156200089d573d6000803e3d6000fd5b50505060008f815260036020908152604080832060058c01546001600160a01b0316845290915281208054925090620008d68362001602565b909155505060008e8152600360209081526040808320338452909152812080549162000902836200161c565b909155505033600090815260046020908152604082208054600181018255908352912001558062000933816200161c565b91505062000724565b5083856009016000828254620009539190620015a9565b925050819055508285600b01600082825462000970919062001593565b9091555050604080518d81523360208201529081018590527fd601ec042b20cd6b7e64d0ae03dd10376bddce25a059eb2fea159f6de2f33fd49060600160405180910390a1505050505050505050505050565b6001546001600160a01b03163314620009f05760405162461bcd60e51b81526004016200050d9062001638565b478062000a395760405162461bcd60e51b81526020600482015260166024820152754e6f2062616c616e636520746f20776974686472617760501b60448201526064016200050d565b6001546040516000916001600160a01b03169083908381818185875af1925050503d806000811462000a88576040519150601f19603f3d011682016040523d82523d6000602084013e62000a8d565b606091505b505090508062000ad45760405162461bcd60e51b815260206004820152601160248201527015da5d1a191c985dd85b0819985a5b1959607a1b60448201526064016200050d565b600154604080516001600160a01b039092168252602082018490527f884edad9ce6fa2440d8a54cc123490eb96d2768479d49ff9c7366125a9424364910160405180910390a15050565b60056020528160005260406000208181548110620003ba57600080fd5b3360009081526004602090815260409182902080548351818402810184019094528084526060939283018282801562000b9457602002820191906000526020600020905b81548152602001906001019080831162000b7f575b5050505050905090565b6001546001600160a01b0316331462000bcb5760405162461bcd60e51b81526004016200050d9062001638565b600060405162000bdb90620010f2565b6040808252600d908201526c283937b832b93a3caa37b5b2b760991b60608201526080602082018190526003908201526250544b60e81b60a082015260c001604051809103906000f08015801562000c37573d6000803e3d6000fd5b509050600062000c488587620015bf565b60408051610140810182528a8152602081018a90526001600160a01b0380881692820192909252606081018990526080810188905260a08101839052600060c0820181905291851660e08201526101008101899052851515610120820152600280546001810182559252805192935091600d9091027f405787fa12a823e0f2b7631cc41b3ba8828b3321ca811111fa75cd3aa3bb5ace019062000cef908290600462001100565b506020820151600482015560408201516005820180546001600160a01b039283166001600160a01b031991821617909155606084015160068401556080840151600784015560a0840151600884015560c0840151600984015560e0840151600a84018054919093169116179055610100820151600b82015561012090910151600c909101805491151560ff1990921691909117905560025460009062000d989060019062001593565b33600090815260056020908152604080832080546001810182559084529190922001829055519091507fef524b4359850968de97539269ca0e418ebc8d509192f02c0a77c00e832650589062000df19083815260200190565b60405180910390a160005b8681101562000eee57600254600090829062000e1b906103e862001573565b62000e279190620015a9565b6040516340c10f1960e01b8152336004820152602481018290529091506001600160a01b038616906340c10f1990604401600060405180830381600087803b15801562000e7357600080fd5b505af115801562000e88573d6000803e3d6000fd5b50505060008481526003602090815260408083203384529091528120805492509062000eb4836200161c565b909155505033600090815260046020908152604082208054600181018255908352912001558062000ee5816200161c565b91505062000dfc565b50505050505050505050565b60025460609060009067ffffffffffffffff81111562000f1e5762000f1e6200134b565b60405190808252806020026020018201604052801562000f48578160200160208202803683370190505b50905060005b60025481101562000f9f57600081815260066020526040902054825183908390811062000f7f5762000f7f62001547565b60209081029190910101528062000f96816200161c565b91505062000f4e565b50919050565b336000908152600560205260409020606090819062000fc362000efa565b8154604080516020808402820181019092528281529184918301828280156200100c57602002820191906000526020600020905b81548152602001906001019080831162000ff7575b50505050509150915091509091565b6001546001600160a01b03163314620010485760405162461bcd60e51b81526004016200050d9062001638565b60008190556040518181527f88f49dcbaed0e4733413f55abc15dc393fc37709d1c423368bcf593e8ca612889060200160405180910390a150565b600281815481106200109457600080fd5b60009182526020909120600d90910201600481015460058201546006830154600784015460088501546009860154600a870154600b880154600c909801549698506001600160a01b0395861697949693959294919392169160ff1689565b611b3780620017b783390190565b82600481019282156200113e579160200282015b828111156200113e57825182906200112d9082620016e9565b509160200191906001019062001114565b506200114c92915062001150565b5090565b808211156200114c57600062001167828262001171565b5060010162001150565b5080546200117f9062001660565b6000825580601f1062001190575050565b601f016020900490600052602060002090810190620011b09190620011b3565b50565b5b808211156200114c5760008155600101620011b4565b6001600160a01b0381168114620011b057600080fd5b8035620011ed81620011ca565b919050565b600080604083850312156200120657600080fd5b82356200121381620011ca565b946020939093013593505050565b6000602082840312156200123457600080fd5b5035919050565b6000806000604084860312156200125157600080fd5b83359250602084013567ffffffffffffffff808211156200127157600080fd5b818601915086601f8301126200128657600080fd5b8135818111156200129657600080fd5b8760208260051b8501011115620012ac57600080fd5b6020830194508093505050509250925092565b60008060408385031215620012d357600080fd5b823591506020830135620012e781620011ca565b809150509250929050565b600081518084526020808501945080840160005b83811015620013245781518752958201959082019060010162001306565b509495945050505050565b602081526000620013446020830184620012f2565b9392505050565b634e487b7160e01b600052604160045260246000fd5b6040516080810167ffffffffffffffff811182821017156200138757620013876200134b565b60405290565b604051601f8201601f1916810167ffffffffffffffff81118282101715620013b957620013b96200134b565b604052919050565b80358015158114620011ed57600080fd5b60008060008060008060c08789031215620013ec57600080fd5b67ffffffffffffffff80883511156200140457600080fd5b8735880189601f8201126200141857600080fd5b6200142262001361565b808b6080840111156200143457600080fd5b825b60808401811015620014d05784813511156200145157600080fd5b803584018d601f8201126200146557600080fd5b8035868111156200147a576200147a6200134b565b6200148f601f8201601f19166020016200138d565b8181528f6020838501011115620014a557600080fd5b8160208401602083013760006020838301015280865250505060208301925060208101905062001436565b509850505050602087013594506040870135935060608701359250620014f960808801620011e0565b91506200150960a08801620013c1565b90509295509295509295565b6040815260006200152a6040830185620012f2565b82810360208401526200153e8185620012f2565b95945050505050565b634e487b7160e01b600052603260045260246000fd5b634e487b7160e01b600052601160045260246000fd5b80820281158282048414176200158d576200158d6200155d565b92915050565b818103818111156200158d576200158d6200155d565b808201808211156200158d576200158d6200155d565b600082620015dd57634e487b7160e01b600052601260045260246000fd5b500490565b600060208284031215620015f557600080fd5b81516200134481620011ca565b6000816200161457620016146200155d565b506000190190565b6000600182016200163157620016316200155d565b5060010190565b6020808252600e908201526d139bdd08185d5d1a1bdc9a5e995960921b604082015260600190565b600181811c908216806200167557607f821691505b60208210810362000f9f57634e487b7160e01b600052602260045260246000fd5b601f821115620016e457600081815260208120601f850160051c81016020861015620016bf5750805b601f850160051c820191505b81811015620016e057828155600101620016cb565b5050505b505050565b815167ffffffffffffffff8111156200170657620017066200134b565b6200171e8162001717845462001660565b8462001696565b602080601f8311600181146200175657600084156200173d5750858301515b600019600386901b1c1916600185901b178555620016e0565b600085815260208120601f198616915b82811015620017875788860151825594840194600190910190840162001766565b5085821015620017a65787850151600019600388901b60f8161c191681555b5050505050600190811b0190555056fe60806040523480156200001157600080fd5b5060405162001b3738038062001b37833981016040819052620000349162000123565b818160006200004483826200021c565b5060016200005382826200021c565b5050505050620002e8565b634e487b7160e01b600052604160045260246000fd5b600082601f8301126200008657600080fd5b81516001600160401b0380821115620000a357620000a36200005e565b604051601f8301601f19908116603f01168101908282118183101715620000ce57620000ce6200005e565b81604052838152602092508683858801011115620000eb57600080fd5b600091505b838210156200010f5785820183015181830184015290820190620000f0565b600093810190920192909252949350505050565b600080604083850312156200013757600080fd5b82516001600160401b03808211156200014f57600080fd5b6200015d8683870162000074565b935060208501519150808211156200017457600080fd5b50620001838582860162000074565b9150509250929050565b600181811c90821680620001a257607f821691505b602082108103620001c357634e487b7160e01b600052602260045260246000fd5b50919050565b601f8211156200021757600081815260208120601f850160051c81016020861015620001f25750805b601f850160051c820191505b818110156200021357828155600101620001fe565b5050505b505050565b81516001600160401b038111156200023857620002386200005e565b62000250816200024984546200018d565b84620001c9565b602080601f8311600181146200028857600084156200026f5750858301515b600019600386901b1c1916600185901b17855562000213565b600085815260208120601f198616915b82811015620002b95788860151825594840194600190910190840162000298565b5085821015620002d85787850151600019600388901b60f8161c191681555b5050505050600190811b01905550565b61183f80620002f86000396000f3fe608060405234801561001057600080fd5b50600436106101165760003560e01c80634f6ccce7116100a257806395d89b411161007157806395d89b4114610242578063a22cb4651461024a578063b88d4fde1461025d578063c87b56dd14610270578063e985e9c51461028357600080fd5b80634f6ccce7146101f657806360316801146102095780636352211e1461021c57806370a082311461022f57600080fd5b806318160ddd116100e957806318160ddd1461019857806323b872dd146101aa5780632f745c59146101bd57806340c10f19146101d057806342842e0e146101e357600080fd5b806301ffc9a71461011b57806306fdde0314610143578063081812fc14610158578063095ea7b314610183575b600080fd5b61012e61012936600461137e565b6102bf565b60405190151581526020015b60405180910390f35b61014b6102ea565b60405161013a91906113eb565b61016b6101663660046113fe565b61037c565b6040516001600160a01b03909116815260200161013a565b610196610191366004611433565b6103a3565b005b6008545b60405190815260200161013a565b6101966101b836600461145d565b6104bd565b61019c6101cb366004611433565b6104ee565b6101966101de366004611433565b610584565b6101966101f136600461145d565b610592565b61019c6102043660046113fe565b6105ad565b61014b6102173660046113fe565b610640565b61016b61022a3660046113fe565b6106e2565b61019c61023d366004611499565b610742565b61014b6107c8565b6101966102583660046114b4565b6107d7565b61019661026b366004611506565b6107e2565b61014b61027e3660046113fe565b61081a565b61012e6102913660046115e2565b6001600160a01b03918216600090815260056020908152604080832093909416825291909152205460ff1690565b60006001600160e01b0319821663780e9d6360e01b14806102e457506102e48261088e565b92915050565b6060600080546102f990611615565b80601f016020809104026020016040519081016040528092919081815260200182805461032590611615565b80156103725780601f1061034757610100808354040283529160200191610372565b820191906000526020600020905b81548152906001019060200180831161035557829003601f168201915b5050505050905090565b6000610387826108de565b506000908152600460205260409020546001600160a01b031690565b60006103ae826106e2565b9050806001600160a01b0316836001600160a01b0316036104205760405162461bcd60e51b815260206004820152602160248201527f4552433732313a20617070726f76616c20746f2063757272656e74206f776e656044820152603960f91b60648201526084015b60405180910390fd5b336001600160a01b038216148061043c575061043c8133610291565b6104ae5760405162461bcd60e51b815260206004820152603d60248201527f4552433732313a20617070726f76652063616c6c6572206973206e6f7420746f60448201527f6b656e206f776e6572206f7220617070726f76656420666f7220616c6c0000006064820152608401610417565b6104b88383610940565b505050565b6104c733826109ae565b6104e35760405162461bcd60e51b81526004016104179061164f565b6104b8838383610a2d565b60006104f983610742565b821061055b5760405162461bcd60e51b815260206004820152602b60248201527f455243373231456e756d657261626c653a206f776e657220696e646578206f7560448201526a74206f6620626f756e647360a81b6064820152608401610417565b506001600160a01b03919091166000908152600660209081526040808320938352929052205490565b61058e8282610b9e565b5050565b6104b8838383604051806020016040528060008152506107e2565b60006105b860085490565b821061061b5760405162461bcd60e51b815260206004820152602c60248201527f455243373231456e756d657261626c653a20676c6f62616c20696e646578206f60448201526b7574206f6620626f756e647360a01b6064820152608401610417565b6008828154811061062e5761062e61169c565b90600052602060002001549050919050565b6000818152600a6020526040902080546060919061065d90611615565b80601f016020809104026020016040519081016040528092919081815260200182805461068990611615565b80156106d65780601f106106ab576101008083540402835291602001916106d6565b820191906000526020600020905b8154815290600101906020018083116106b957829003601f168201915b50505050509050919050565b6000818152600260205260408120546001600160a01b0316806102e45760405162461bcd60e51b8152602060048201526018602482015277115490cdcc8c4e881a5b9d985b1a59081d1bdad95b88125160421b6044820152606401610417565b60006001600160a01b0382166107ac5760405162461bcd60e51b815260206004820152602960248201527f4552433732313a2061646472657373207a65726f206973206e6f7420612076616044820152683634b21037bbb732b960b91b6064820152608401610417565b506001600160a01b031660009081526003602052604090205490565b6060600180546102f990611615565b61058e338383610d37565b6107ec33836109ae565b6108085760405162461bcd60e51b81526004016104179061164f565b61081484848484610e05565b50505050565b6060610825826108de565b600061083c60408051602081019091526000815290565b9050600081511161085c5760405180602001604052806000815250610887565b8061086684610e38565b6040516020016108779291906116b2565b6040516020818303038152906040525b9392505050565b60006001600160e01b031982166380ac58cd60e01b14806108bf57506001600160e01b03198216635b5e139f60e01b145b806102e457506301ffc9a760e01b6001600160e01b03198316146102e4565b6000818152600260205260409020546001600160a01b031661093d5760405162461bcd60e51b8152602060048201526018602482015277115490cdcc8c4e881a5b9d985b1a59081d1bdad95b88125160421b6044820152606401610417565b50565b600081815260046020526040902080546001600160a01b0319166001600160a01b0384169081179091558190610975826106e2565b6001600160a01b03167f8c5be1e5ebec7d5bd14f71427d1e84f3dd0314c0f7b2291e5b200ac8c7c3b92560405160405180910390a45050565b6000806109ba836106e2565b9050806001600160a01b0316846001600160a01b03161480610a0157506001600160a01b0380821660009081526005602090815260408083209388168352929052205460ff165b80610a255750836001600160a01b0316610a1a8461037c565b6001600160a01b0316145b949350505050565b826001600160a01b0316610a40826106e2565b6001600160a01b031614610a665760405162461bcd60e51b8152600401610417906116e1565b6001600160a01b038216610ac85760405162461bcd60e51b8152602060048201526024808201527f4552433732313a207472616e7366657220746f20746865207a65726f206164646044820152637265737360e01b6064820152608401610417565b610ad58383836001610ecb565b826001600160a01b0316610ae8826106e2565b6001600160a01b031614610b0e5760405162461bcd60e51b8152600401610417906116e1565b600081815260046020908152604080832080546001600160a01b03199081169091556001600160a01b0387811680865260038552838620805460001901905590871680865283862080546001019055868652600290945282852080549092168417909155905184937fddf252ad1be2c89b69c2b068fc378daa952ba7f163c4a11628f55a4df523b3ef91a4505050565b6001600160a01b038216610bf45760405162461bcd60e51b815260206004820181905260248201527f4552433732313a206d696e7420746f20746865207a65726f20616464726573736044820152606401610417565b6000818152600260205260409020546001600160a01b031615610c595760405162461bcd60e51b815260206004820152601c60248201527f4552433732313a20746f6b656e20616c7265616479206d696e746564000000006044820152606401610417565b610c67600083836001610ecb565b6000818152600260205260409020546001600160a01b031615610ccc5760405162461bcd60e51b815260206004820152601c60248201527f4552433732313a20746f6b656e20616c7265616479206d696e746564000000006044820152606401610417565b6001600160a01b038216600081815260036020908152604080832080546001019055848352600290915280822080546001600160a01b0319168417905551839291907fddf252ad1be2c89b69c2b068fc378daa952ba7f163c4a11628f55a4df523b3ef908290a45050565b816001600160a01b0316836001600160a01b031603610d985760405162461bcd60e51b815260206004820152601960248201527f4552433732313a20617070726f766520746f2063616c6c6572000000000000006044820152606401610417565b6001600160a01b03838116600081815260056020908152604080832094871680845294825291829020805460ff191686151590811790915591519182527f17307eab39ab6107e8899845ad3d59bd9653f200f220920489ca2b5937696c31910160405180910390a3505050565b610e10848484610a2d565b610e1c84848484610fff565b6108145760405162461bcd60e51b815260040161041790611726565b60606000610e4583611100565b600101905060008167ffffffffffffffff811115610e6557610e656114f0565b6040519080825280601f01601f191660200182016040528015610e8f576020820181803683370190505b5090508181016020015b600019016f181899199a1a9b1b9c1cb0b131b232b360811b600a86061a8153600a8504945084610e9957509392505050565b6001811115610f3a5760405162461bcd60e51b815260206004820152603560248201527f455243373231456e756d657261626c653a20636f6e7365637574697665207472604482015274185b9cd9995c9cc81b9bdd081cdd5c1c1bdc9d1959605a1b6064820152608401610417565b816001600160a01b038516610f9657610f9181600880546000838152600960205260408120829055600182018355919091527ff3f7a9fe364faab93b216da50a3214154f22a0a2b415b23a84c8169e8b636ee30155565b610fb9565b836001600160a01b0316856001600160a01b031614610fb957610fb985826111d8565b6001600160a01b038416610fd557610fd081611275565b610ff8565b846001600160a01b0316846001600160a01b031614610ff857610ff88482611324565b5050505050565b60006001600160a01b0384163b156110f557604051630a85bd0160e11b81526001600160a01b0385169063150b7a0290611043903390899088908890600401611778565b6020604051808303816000875af192505050801561107e575060408051601f3d908101601f1916820190925261107b918101906117b5565b60015b6110db573d8080156110ac576040519150601f19603f3d011682016040523d82523d6000602084013e6110b1565b606091505b5080516000036110d35760405162461bcd60e51b815260040161041790611726565b805181602001fd5b6001600160e01b031916630a85bd0160e11b149050610a25565b506001949350505050565b60008072184f03e93ff9f4daa797ed6e38ed64bf6a1f0160401b831061113f5772184f03e93ff9f4daa797ed6e38ed64bf6a1f0160401b830492506040015b6d04ee2d6d415b85acef8100000000831061116b576d04ee2d6d415b85acef8100000000830492506020015b662386f26fc10000831061118957662386f26fc10000830492506010015b6305f5e10083106111a1576305f5e100830492506008015b61271083106111b557612710830492506004015b606483106111c7576064830492506002015b600a83106102e45760010192915050565b600060016111e584610742565b6111ef91906117d2565b600083815260076020526040902054909150808214611242576001600160a01b03841660009081526006602090815260408083208584528252808320548484528184208190558352600790915290208190555b5060009182526007602090815260408084208490556001600160a01b039094168352600681528383209183525290812055565b600854600090611287906001906117d2565b600083815260096020526040812054600880549394509092849081106112af576112af61169c565b9060005260206000200154905080600883815481106112d0576112d061169c565b6000918252602080832090910192909255828152600990915260408082208490558582528120556008805480611308576113086117f3565b6001900381819060005260206000200160009055905550505050565b600061132f83610742565b6001600160a01b039093166000908152600660209081526040808320868452825280832085905593825260079052919091209190915550565b6001600160e01b03198116811461093d57600080fd5b60006020828403121561139057600080fd5b813561088781611368565b60005b838110156113b657818101518382015260200161139e565b50506000910152565b600081518084526113d781602086016020860161139b565b601f01601f19169290920160200192915050565b60208152600061088760208301846113bf565b60006020828403121561141057600080fd5b5035919050565b80356001600160a01b038116811461142e57600080fd5b919050565b6000806040838503121561144657600080fd5b61144f83611417565b946020939093013593505050565b60008060006060848603121561147257600080fd5b61147b84611417565b925061148960208501611417565b9150604084013590509250925092565b6000602082840312156114ab57600080fd5b61088782611417565b600080604083850312156114c757600080fd5b6114d083611417565b9150602083013580151581146114e557600080fd5b809150509250929050565b634e487b7160e01b600052604160045260246000fd5b6000806000806080858703121561151c57600080fd5b61152585611417565b935061153360208601611417565b925060408501359150606085013567ffffffffffffffff8082111561155757600080fd5b818701915087601f83011261156b57600080fd5b81358181111561157d5761157d6114f0565b604051601f8201601f19908116603f011681019083821181831017156115a5576115a56114f0565b816040528281528a60208487010111156115be57600080fd5b82602086016020830137600060208483010152809550505050505092959194509250565b600080604083850312156115f557600080fd5b6115fe83611417565b915061160c60208401611417565b90509250929050565b600181811c9082168061162957607f821691505b60208210810361164957634e487b7160e01b600052602260045260246000fd5b50919050565b6020808252602d908201527f4552433732313a2063616c6c6572206973206e6f7420746f6b656e206f776e6560408201526c1c881bdc88185c1c1c9bdd9959609a1b606082015260800190565b634e487b7160e01b600052603260045260246000fd5b600083516116c481846020880161139b565b8351908301906116d881836020880161139b565b01949350505050565b60208082526025908201527f4552433732313a207472616e736665722066726f6d20696e636f72726563742060408201526437bbb732b960d91b606082015260800190565b60208082526032908201527f4552433732313a207472616e7366657220746f206e6f6e20455243373231526560408201527131b2b4bb32b91034b6b83632b6b2b73a32b960711b606082015260800190565b6001600160a01b03858116825284166020820152604081018390526080606082018190526000906117ab908301846113bf565b9695505050505050565b6000602082840312156117c757600080fd5b815161088781611368565b818103818111156102e457634e487b7160e01b600052601160045260246000fd5b634e487b7160e01b600052603160045260246000fdfea264697066735822122061446a7f0e0d3b8e21f7316083a1c2737e651a50efe6dbed69133c6c89561c5f64736f6c63430008110033a26469706673582212200018f41a64a2a9d55514d99d613f5270a097fc1cc5e579dc1dcdba98a59fd6fe64736f6c63430008110033",
  "linkReferences": {},
  "deployedLinkReferences": {}
}